S0140000536F6C6172547261636B65722E7372656343
S11300000C9434000C943E000C943E000C943E007E
S11300100C943E000C943E000C943E000C943E0064
S11300200C943E000C943E000C943E000C943E0054
S11300300C943E000C943E000C943E000C943E0044
S11300400C943E000C943E000C943E000C943E0034
S11300500C943E000C943E000C943E000C943E0024
S11300600C943E000C943E0011241FBECFEFD8E048
S1130070DEBFCDBF0E949B000C948B010C9400004A
S113008082EA809380008BE18093810087E893E18A
S11300909093870080938600089580E480937C0089
S11300A0EAE7F0E087E880838081806480830895B4
S11300B088E18093C10086E08093C20087E6809344
S11300C0C4000895DC0120E034E244EF50E00E94D3
S11300D04F0120E030EA4FE050E00E94300121500F
S11300E027BD82E084BD85E085BDA99BFECF15BCFC
S11300F082E085BB0895ECE7F0E09081987F9083DF
S11301009081892B8083EAE7F0E08081806480839A
S113011004C081E090E00E94620080917A0084FF34
S1130120F8CFEAE7F0E080818061808380917800F5
S113013090917900089584B1866084B90E944D003D
S11301400E9440000E94580085EB91E09093890042
S11301508093880090938B0080938A0085E090E0E0
S11301600E94620083E00E947B006C0180E00E9498
S11301707B008C0182E00E947B007C0181E00E9474
S11301807B00EC010C151D05C0F4C601801B910B0E
S11301904F9798F080918800909189008A3F91054B
S11301A030F1E8E8F0E080819181019791838083C8
S11301B085E090E00E9462001AC0C016D106B8F42F
S11301C00C191D090F31110590F080918800909150
S11301D089008037924058F4E8E8F0E0808191810A
S11301E001969183808385E090E00E946200CE15A1
S11301F0DF05C8F4C7018C1B9D0B4F97A0F08091BD
S11302008A0090918B008E35914008F4ABCFEAE8D8
S1130210F0E08081918101979183808385E090E073
S11302200E9462009FCFEC16FD0608F09BCFCE190A
S1130230DF096F9708F496CF80918A0090918B0024
S11302408C30924008F08ECFEAE8F0E08081918112
S113025001969183808385E090E00E94620082CFC2
S1130260052E97FB1EF400940E94470157FD07D00A
S11302700E945A0107FC03D04EF40C944701509598
S11302804095309521953F4F4F4F5F4F089590957E
S11302908095709561957F4F8F4F9F4F08950E9471
S11302A07C01A59F900DB49F900DA49F800D911D7E
S11302B011240895A1E21A2EAA1BBB1BFD010DC037
S11302C0AA1FBB1FEE1FFF1FA217B307E407F50702
S11302D020F0A21BB30BE40BF50B661F771F881FDE
S11302E0991F1A9469F760957095809590959B0174
S11302F0AC01BD01CF010895A29FB001B39FC0011D
S1130300A39F700D811D1124911DB29F700D811D3D
S10D03101124911D0895F894FFCF05
S9030000FC
